{
  "_format": "hh-sol-artifact-1",
  "contractName": "CastCanvas",
  "sourceName": "contracts/CastCanvas.sol",
  "abi": [
    {
      "inputs": [
        {
          "internalType": "address",
          "name": "initialOwner",
          "type": "address"
        }
      ],
      "stateMutability": "nonpayable",
      "type": "constructor"
    },
    {
      "inputs": [
        {
          "internalType": "address",
          "name": "owner",
          "type": "address"
        }
      ],
      "name": "OwnableInvalidOwner",
      "type": "error"
    },
    {
      "inputs": [
        {
          "internalType": "address",
          "name": "account",
          "type": "address"
        }
      ],
      "name": "OwnableUnauthorizedAccount",
      "type": "error"
    },
    {
      "inputs": [],
      "name": "ReentrancyGuardReentrantCall",
      "type": "error"
    },
    {
      "anonymous": false,
      "inputs": [
        {
          "indexed": true,
          "internalType": "address",
          "name": "user",
          "type": "address"
        },
        {
          "indexed": false,
          "internalType": "uint256",
          "name": "newLimit",
          "type": "uint256"
        }
      ],
      "name": "DailyLimitReset",
      "type": "event"
    },
    {
      "anonymous": false,
      "inputs": [
        {
          "indexed": true,
          "internalType": "address",
          "name": "previousOwner",
          "type": "address"
        },
        {
          "indexed": true,
          "internalType": "address",
          "name": "newOwner",
          "type": "address"
        }
      ],
      "name": "OwnershipTransferred",
      "type": "event"
    },
    {
      "anonymous": false,
      "inputs": [
        {
          "indexed": true,
          "internalType": "address",
          "name": "user",
          "type": "address"
        },
        {
          "indexed": false,
          "internalType": "uint256",
          "name": "amount",
          "type": "uint256"
        },
        {
          "indexed": false,
          "internalType": "uint256",
          "name": "pixels",
          "type": "uint256"
        }
      ],
      "name": "PixelPurchased",
      "type": "event"
    },
    {
      "anonymous": false,
      "inputs": [
        {
          "indexed": true,
          "internalType": "address",
          "name": "user",
          "type": "address"
        },
        {
          "indexed": false,
          "internalType": "uint256",
          "name": "pixels",
          "type": "uint256"
        }
      ],
      "name": "PixelsAdded",
      "type": "event"
    },
    {
      "inputs": [],
      "name": "DAILY_PIXEL_LIMIT",
      "outputs": [
        {
          "internalType": "uint256",
          "name": "",
          "type": "uint256"
        }
      ],
      "stateMutability": "view",
      "type": "function"
    },
    {
      "inputs": [],
      "name": "PIXELS_PER_PURCHASE",
      "outputs": [
        {
          "internalType": "uint256",
          "name": "",
          "type": "uint256"
        }
      ],
      "stateMutability": "view",
      "type": "function"
    },
    {
      "inputs": [],
      "name": "PRICE_PER_PURCHASE",
      "outputs": [
        {
          "internalType": "uint256",
          "name": "",
          "type": "uint256"
        }
      ],
      "stateMutability": "view",
      "type": "function"
    },
    {
      "inputs": [
        {
          "internalType": "address",
          "name": "user",
          "type": "address"
        },
        {
          "internalType": "uint256",
          "name": "pixels",
          "type": "uint256"
        }
      ],
      "name": "addPixelsToUser",
      "outputs": [],
      "stateMutability": "nonpayable",
      "type": "function"
    },
    {
      "inputs": [
        {
          "internalType": "address payable",
          "name": "recipient",
          "type": "address"
        }
      ],
      "name": "emergencyWithdraw",
      "outputs": [],
      "stateMutability": "nonpayable",
      "type": "function"
    },
    {
      "inputs": [
        {
          "internalType": "address",
          "name": "user",
          "type": "address"
        }
      ],
      "name": "getAvailablePixels",
      "outputs": [
        {
          "internalType": "uint256",
          "name": "",
          "type": "uint256"
        }
      ],
      "stateMutability": "view",
      "type": "function"
    },
    {
      "inputs": [],
      "name": "getBalance",
      "outputs": [
        {
          "internalType": "uint256",
          "name": "",
          "type": "uint256"
        }
      ],
      "stateMutability": "view",
      "type": "function"
    },
    {
      "inputs": [
        {
          "internalType": "address",
          "name": "user",
          "type": "address"
        }
      ],
      "name": "getDailyPixels",
      "outputs": [
        {
          "internalType": "uint256",
          "name": "",
          "type": "uint256"
        }
      ],
      "stateMutability": "view",
      "type": "function"
    },
    {
      "inputs": [],
      "name": "owner",
      "outputs": [
        {
          "internalType": "address",
          "name": "",
          "type": "address"
        }
      ],
      "stateMutability": "view",
      "type": "function"
    },
    {
      "inputs": [],
      "name": "purchasePixels",
      "outputs": [],
      "stateMutability": "payable",
      "type": "function"
    },
    {
      "inputs": [],
      "name": "renounceOwnership",
      "outputs": [],
      "stateMutability": "nonpayable",
      "type": "function"
    },
    {
      "inputs": [
        {
          "internalType": "address",
          "name": "user",
          "type": "address"
        }
      ],
      "name": "resetDailyPixels",
      "outputs": [],
      "stateMutability": "nonpayable",
      "type": "function"
    },
    {
      "inputs": [
        {
          "internalType": "address",
          "name": "newOwner",
          "type": "address"
        }
      ],
      "name": "transferOwnership",
      "outputs": [],
      "stateMutability": "nonpayable",
      "type": "function"
    },
    {
      "inputs": [
        {
          "internalType": "address",
          "name": "user",
          "type": "address"
        }
      ],
      "name": "usePixel",
      "outputs": [
        {
          "internalType": "bool",
          "name": "",
          "type": "bool"
        }
      ],
      "stateMutability": "nonpayable",
      "type": "function"
    },
    {
      "inputs": [
        {
          "internalType": "address",
          "name": "",
          "type": "address"
        }
      ],
      "name": "userDailyPixels",
      "outputs": [
        {
          "internalType": "uint256",
          "name": "",
          "type": "uint256"
        }
      ],
      "stateMutability": "view",
      "type": "function"
    },
    {
      "inputs": [
        {
          "internalType": "address",
          "name": "",
          "type": "address"
        }
      ],
      "name": "userLastResetDay",
      "outputs": [
        {
          "internalType": "uint256",
          "name": "",
          "type": "uint256"
        }
      ],
      "stateMutability": "view",
      "type": "function"
    },
    {
      "inputs": [
        {
          "internalType": "address",
          "name": "",
          "type": "address"
        }
      ],
      "name": "userPurchasedPixels",
      "outputs": [
        {
          "internalType": "uint256",
          "name": "",
          "type": "uint256"
        }
      ],
      "stateMutability": "view",
      "type": "function"
    },
    {
      "inputs": [],
      "name": "withdraw",
      "outputs": [],
      "stateMutability": "nonpayable",
      "type": "function"
    },
    {
      "stateMutability": "payable",
      "type": "receive"
    }
  ],
  "bytecode": "0x608060405234801561001057600080fd5b50604051610c37380380610c3783398101604081905261002f916100c2565b806001600160a01b03811661005e57604051631e4fbdf760e01b81526000600482015260240160405180910390fd5b61006781610072565b5050600180556100f2565b600080546001600160a01b038381166001600160a01b0319831681178455604051919092169283917f8be0079c531659141344cd1fd0a4f28419497f9722a3daafe3b4186f6b6457e09190a35050565b6000602082840312156100d457600080fd5b81516001600160a01b03811681146100eb57600080fd5b9392505050565b610b36806101016000396000f3fe60806040526004361061010d5760003560e01c80638da5cb5b11610095578063c0adb0a811610064578063c0adb0a814610297578063c2746a96146102ac578063e3a7c317146102d9578063e3e8049f14610306578063f2fde38b1461033357600080fd5b80638da5cb5b1461020f578063941c7c92146102375780639a0c5e8b146102575780639ccb89bc1461027757600080fd5b80636e8537ef116100dc5780636e8537ef146101875780636ff1c9bc146101b7578063715018a6146101d75780637561f8e4146101ec578063787b44f51461020757600080fd5b806312065fe0146101195780633ccfd60b1461013b578063526966591461015257806352716a7a1461016757600080fd5b3661011457005b600080fd5b34801561012557600080fd5b50475b6040519081526020015b60405180910390f35b34801561014757600080fd5b50610150610353565b005b34801561015e57600080fd5b50610128600a81565b34801561017357600080fd5b50610150610182366004610a4c565b61043e565b34801561019357600080fd5b506101a76101a2366004610a78565b610502565b6040519015158152602001610132565b3480156101c357600080fd5b506101506101d2366004610a78565b6105da565b3480156101e357600080fd5b5061015061070b565b3480156101f857600080fd5b5061012866038d7ea4c6800081565b61015061071f565b34801561021b57600080fd5b506000546040516001600160a01b039091168152602001610132565b34801561024357600080fd5b50610128610252366004610a78565b610824565b34801561026357600080fd5b50610150610272366004610a78565b610880565b34801561028357600080fd5b50610128610292366004610a78565b61091b565b3480156102a357600080fd5b50610128600581565b3480156102b857600080fd5b506101286102c7366004610a78565b60026020526000908152604090205481565b3480156102e557600080fd5b506101286102f4366004610a78565b60036020526000908152604090205481565b34801561031257600080fd5b50610128610321366004610a78565b60046020526000908152604090205481565b34801561033f57600080fd5b5061015061034e366004610a78565b610952565b61035b610990565b47806103a35760405162461bcd60e51b81526020600482015260126024820152714e6f2045544820746f20776974686472617760701b60448201526064015b60405180910390fd5b600080546040516001600160a01b039091169083908381818185875af1925050503d80600081146103f0576040519150601f19603f3d011682016040523d82523d6000602084013e6103f5565b606091505b505090508061043a5760405162461bcd60e51b815260206004820152601160248201527015da5d1a191c985dd85b0819985a5b1959607a1b604482015260640161039a565b5050565b610446610990565b6001600160a01b0382166104935760405162461bcd60e51b8152602060048201526014602482015273496e76616c69642075736572206164647265737360601b604482015260640161039a565b6001600160a01b038216600090815260026020526040812080548392906104bb908490610ab2565b90915550506040518181526001600160a01b038316907fc0a942c22325eb5ec93027a1a4b1694c0f965faa648c62311d2b6b3e3fe0c0779060200160405180910390a25050565b600061050c610990565b600061051783610824565b905080156105785761052a600182610acb565b6001600160a01b0384166000908152600360205260408120919091556105536201518042610ade565b6001600160a01b03851660009081526004602052604090205550600191506105d59050565b6001600160a01b038316600090815260026020526040902054156105cf576001600160a01b03831660009081526002602052604081208054600192906105bf908490610acb565b90915550600192506105d5915050565b60009150505b919050565b6105e2610990565b47806106255760405162461bcd60e51b81526020600482015260126024820152714e6f2045544820746f20776974686472617760701b604482015260640161039a565b6001600160a01b03821661066f5760405162461bcd60e51b8152602060048201526011602482015270125b9d985b1a59081c9958da5c1a595b9d607a1b604482015260640161039a565b6000826001600160a01b03168260405160006040518083038185875af1925050503d80600081146106bc576040519150601f19603f3d011682016040523d82523d6000602084013e6106c1565b606091505b50509050806107065760405162461bcd60e51b815260206004820152601160248201527015da5d1a191c985dd85b0819985a5b1959607a1b604482015260640161039a565b505050565b610713610990565b61071d60006109bd565b565b610727610a0d565b66038d7ea4c68000341461077d5760405162461bcd60e51b815260206004820152601860248201527f496e636f7272656374207061796d656e7420616d6f756e740000000000000000604482015260640161039a565b336107bb5760405162461bcd60e51b815260206004820152600e60248201526d24b73b30b634b21039b2b73232b960911b604482015260640161039a565b3360009081526002602052604081208054600a92906107db908490610ab2565b909155505060408051348152600a602082015233917f41a3ef81378d5d46e9fc550f14cb654c5e5629046257c3a447d31fc3aefc40c8910160405180910390a261071d60018055565b6000806108346201518042610ade565b6001600160a01b03841660009081526004602052604090205490915081811015610862575060059392505050565b5050506001600160a01b031660009081526003602052604090205490565b610888610990565b60006108976201518042610ade565b6001600160a01b03831660009081526004602052604090205490915081811015610706576001600160a01b03831660008181526003602090815260408083206005908190556004835292819020869055519182527fe08bf5ec0359ff00ff7306d2a54240f6b4970e8ed71e637f2117ab9b246896f9910160405180910390a2505050565b6001600160a01b0381166000908152600260205260408120548161093e84610824565b905061094a8183610ab2565b949350505050565b61095a610990565b6001600160a01b03811661098457604051631e4fbdf760e01b81526000600482015260240161039a565b61098d816109bd565b50565b6000546001600160a01b0316331461071d5760405163118cdaa760e01b815233600482015260240161039a565b600080546001600160a01b038381166001600160a01b0319831681178455604051919092169283917f8be0079c531659141344cd1fd0a4f28419497f9722a3daafe3b4186f6b6457e09190a35050565b600260015403610a3057604051633ee5aeb560e01b815260040160405180910390fd5b6002600155565b6001600160a01b038116811461098d57600080fd5b60008060408385031215610a5f57600080fd5b8235610a6a81610a37565b946020939093013593505050565b600060208284031215610a8a57600080fd5b8135610a9581610a37565b9392505050565b634e487b7160e01b600052601160045260246000fd5b80820180821115610ac557610ac5610a9c565b92915050565b81810381811115610ac557610ac5610a9c565b600082610afb57634e487b7160e01b600052601260045260246000fd5b50049056fea264697066735822122034b87eb5bd866845d4bfe538dff636326aa468e66f5b39d97da33f313fd8c60a64736f6c63430008140033",
  "linkReferences": {},
  "deployedLinkReferences": {}
}